:020000040800F2
:10000000600600200D0200084B0200084D020008A7
:100010004F020008510200085302000800000000CF
:100020000000000000000000000000005502000871
:100030005702000800000000590200085B02000897
:100040005D0200085D0200085D0200085D02000814
:100050005D0200085D0200085D0200085D02000804
:100060005D0200085D0200085D0200085D020008F4
:100070005D0200085D0200085D0200085D020008E4
:100080005D0200085D0200085D0200085D020008D4
:100090005D0200085D0200085D0200085D020008C4
:1000A0005D0200085D0200085D0200085D020008B4
:1000B0005D0200085D0200085D0200085D020008A4
:1000C0005D0200085D0200085D0200085D02000894
:1000D0005D0200085D0200085D0200085D02000884
:1000E0005D0200085D0200085D0200085D02000874
:1000F0005D0200085D0200085D0200085D02000864
:100100005D0200085D0200085D0200085D02000853
:100110005D0200085D0200085D0200085D02000843
:100120005D0200085D0200085D0200085D02000833
:100130005D0200085D0200085D0200085D02000823
:100140005D0200085D0200085D0200085D02000813
:100150005D0200085D0200085D0200085D02000803
:100160005D0200085D0200085D0200085D020008F3
:100170005D0200085D0200085D020008000000004A
:100180005D0200085D02000800F002F800F02EF8A1
:100190000AA090E8000C82448344AAF10107DA45E2
:1001A00001D100F023F8AFF2090EBAE80F0013F006
:1001B000010F18BFFB1A43F001031847D8080000CD
:1001C000E80800000023002400250026103A28BF7C
:1001D00078C1FBD8520728BF30C148BF0B607047B9
:1001E0001FB500F049FC1FBD10B510BD00F057F859
:1001F0001146FFF7F5FF00F071FB00F075F803B44E
:10020000FFF7F2FF03BC00F07DF800001748184923
:10021000184B99423CBF50F8042B41F8042BF8D3FB
:10022000154B16494FF000028B4238BF43F8042BA0
:10023000FAD3DFF84C00016841F470010160BFF3AC
:100240004F8FBFF36F8F0F480047FEE7FEE7FEE7D3
:10025000FEE7FEE7FEE7FEE7FEE7FEE7FEE700005B
:1002600009480A490A4A0B4B70470000A40A0008D3
:100270000000002000000020000000206006002098
:1002800088ED00E089010008600000206006002081
:10029000600200206002002070477047704775467A
:1002A00000F02CF8AE4605006946534620F00700E2
:1002B000854618B020B5FFF7D3FFBDE820404FF0CA
:1002C00000064FF000074FF000084FF0000BAC465F
:1002D000ACE8C009ACE8C009ACE8C009ACE8C009AA
:1002E00021F007018D46704710B50446AFF300803A
:1002F0002046BDE81040FFF782BF0000004870476D
:100300000000002001491820ABBEFEE726000200D5
:100310007047000041F24C01C4F20201086840F04D
:100320000200086040F20441C4F60001086840F091
:10033000C000086040F20041C4F60001086820F4E3
:10034000A040086040F22041C4F60001086820F097
:100350007F400860086840F08840086040F208412B
:10036000C4F60001086840F47040086040F20C4197
:10037000C4F60001086820F470400860086840F482
:10038000A04008607047000081B05220009041F208
:100390005801C4F20201086840F40010086041F2FC
:1003A0008801C4F20201086820F44050086008681F
:1003B00040F48050086041F23801C4F2020108683C
:1003C00040F400100860086820F40010086045F24E
:1003D0000041C4F20001086820F0010008600868CC
:1003E0004EF2FF02CFF6FD7210400860086840F040
:1003F0008000086045F20442C4F20002106820F454
:1004000000601060106848F20003C0F20023184337
:10041000106045F21042C4F20002106840F0E04063
:1004200010601068106010681060106840F4A060E0
:100430001060106840F00C00106045F20842C4F2F1
:100440000002106820F40040106045F20C43C4F232
:100450000003186820F400401860106820F48060E1
:100460001060009B106818431060106840F4004052
:100470001060086840F00100086001B0704700009B
:1004800080B586B004908DF80F1002928DF8073079
:100490009DF80700012803DBFFE7029820B9FFE77A
:1004A000FF208DF8170034E0049800F0EDF8049870
:1004B0009DF80F109DF80720012300F09DF8002003
:1004C0000090FFE700989DF80710884212DAFFE7D6
:1004D000FFE7049880694007002801D4FFE7F8E7A8
:1004E0000498406A0299009A8854FFE70098013006
:1004F0000090E7E7FFE7049880694006002801D4F0
:10050000FFE7F8E7049800F0ADF800208DF8170039
:10051000FFE79DF9170006B080BD000080B588B0E8
:1005200006908DF8171004928DF80F309DF80F008B
:10053000012803DBFFE7049820B9FFE7FF208DF8CF
:100540001F0054E0069800F09FF806989DF81710D9
:100550009DF80F20002300F04FF8B0F1FF3F04DCBE
:10056000FFE7FF208DF81F0041E000200290FFE729
:1005700002989DF80F10884211DAFFE7FFE706980E
:100580008069C00708B9FFE7F9E704980299405C61
:1005900006998862FFE7029801300290E8E7FFE7DA
:1005A00006988169002049060029019009D4FFE7D7
:1005B0000698806900F01001012080EA1110019076
:1005C000FFE70198C00708B1FFE7E9E706988069EF
:1005D000C006002804D5FFE7FF208DF81F0006E0C5
:1005E000069800F03FF800208DF81F00FFE79DF906
:1005F0001F0008B080BD000084B0039002918DF808
:1006000007208DF806300020009003984068009085
:10061000009849F60001CFF60041084000909DF88F
:100620000600012805D1FFE7009840F480600090A3
:1006300004E0009820F480600090FFE702986FF3D8
:100640009F209DF8071040EA014100980843009060
:10065000009840F4005000900098039948600020F2
:1006600004B0704781B000900099486840F4804021
:100670004860FFE7009880698006002801D4FFE702
:10068000F8E701B07047000081B00090FFE70098E4
:1006900080690004002801D5FFE7F8E701B0704742
:1006A00083B042F20001C4F20201086820F00700A2
:1006B0000860086840F00200086041F20001C4F2DE
:1006C0000201086840F480700860FFE741F2000012
:1006D000C4F2020000684005002801D4FFE7F5E7F6
:1006E0001020029041F20401C4F20201086820F0D7
:1006F000F8500860029A086840EA0260086041F217
:100700000001C4F20201086820F080700860FFE771
:1007100041F20000C4F2020000688001002801D507
:10072000FFE7F5E741F20C01C4F20201019108680C
:1007300020F003000860086840F0020008600868C4
:10074000142262F30E2008600868012262F306108A
:100750000860086820F0C0600860086840F0807099
:10076000086041F20001C4F20201086840F08070A4
:100770000860FFE741F20000C4F202000068800157
:10078000002801D4FFE7F5E741F20801C4F20201B5
:10079000086820F003000860086840F00300086063
:1007A000FFE741F20800C4F20200006800F00C000C
:1007B0000C2801D0FFE7F4E741F20801C4F202017E
:1007C000086820F0F0000860086820F4E060086025
:1007D000086820F46050086041F20001C4F2020190
:1007E000086820F080600860FFE741F20000C4F272
:1007F000020000684001002801D5FFE7F5E741F25B
:100800001001C4F202010091086820F4FE40086063
:10081000086840F4C0500860086840F40030086080
:10082000086840F48030086041F20001C4F202011F
:10083000086840F080600860FFE741F20000C4F201
:10084000020000684001002801D4FFE7F5E741F20B
:100850008801C4F20201086820F44000086041F2F7
:100860006001C4F20201086840F40010086003B09F
:100870007047000080B586B0D0208DF817006B203F
:10088000ADF814009DF8171045F20040C4F20000C6
:10089000039005AA019202230293FFF73FFE019AFB
:1008A000039819218DF8141007218DF815109DF863
:1008B00017100123FFF732FE019A029B03981C21B7
:1008C0008DF81410002104918DF815109DF8171063
:1008D000FFF724FE049806B080BD000080B58EB0FE
:1008E00000200D90FFF7DCFEFFF714FDFFF74CFD35
:1008F000FFF7C0FFFFE7D0208DF82F004FF08D40AD
:1009000003903B208DF813009DF82F1045F2004016
:10091000C4F2000002900DF1130200920123019332
:10092000FFF7FCFD019B02989DF82F100DF12502A9
:10093000FFF7A6FD009A019B02983C218DF8131049
:100940009DF82F10FFF7EAFD019B02989DF82F10EC
:1009500009AAFFF795FD009A019B02989DF825C012
:100960009DF9241041EA0C21ADF82610BDF926109E
:1009700000EE101AB8EEC00A9DED031A80EE010ACF
:100980008DED0A0A3D218DF813109DF82F10FFF709
:10099000C5FD019B02989DF82F100DF11D02FFF778
:1009A0006FFD009A019B02983E218DF813109DF86F
:1009B0002F10FFF7B3FD019B02989DF82F1007AA97
:1009C000FFF75EFD009A019B02989DF81DC09DF9FE
:1009D0001C1041EA0C21ADF81E10BDF91E1000EEEE
:1009E000101AB8EEC00A9DED031A80EE010A8DEDD3
:1009F000080A3F218DF813109DF82F10FFF78EFD88
:100A0000019B02989DF82F100DF11502FFF738FD9C
:100A1000009A019B029840218DF813109DF82F1029
:100A2000FFF77CFD019B02989DF82F1005AAFFF7A8
:100A300027FD9DF815109DF9140040EA0120ADF83E
:100A40001600BDF9160000EE100AB8EEC00A9DEDC2
:100A5000031A80EE010A8DED060A00200C90FFE7D4
:100A60000C984CF24F31884205DCFFE7FFE70C9809
:100A700001300C90F4E73EE7F1EE100A4FF6FF71FB
:100A8000C0F2C03120EA010040F04070E1EE100AEF
:100A900070470000A40A0008000000206006000063
:040AA000C401000885
:040000050800018965
:00000001FF
